{
  "contractName": "SimpleWallet",
  "abi": [
    {
      "inputs": [],
      "stateMutability": "nonpayable",
      "type": "constructor"
    },
    {
      "anonymous": false,
      "inputs": [
        {
          "indexed": true,
          "internalType": "address",
          "name": "from",
          "type": "address"
        },
        {
          "indexed": false,
          "internalType": "uint256",
          "name": "amount",
          "type": "uint256"
        }
      ],
      "name": "Deposit",
      "type": "event"
    },
    {
      "anonymous": false,
      "inputs": [
        {
          "indexed": true,
          "internalType": "address",
          "name": "oldOwner",
          "type": "address"
        },
        {
          "indexed": true,
          "internalType": "address",
          "name": "newOwner",
          "type": "address"
        }
      ],
      "name": "OwnerUpdated",
      "type": "event"
    },
    {
      "anonymous": false,
      "inputs": [
        {
          "indexed": true,
          "internalType": "address",
          "name": "to",
          "type": "address"
        },
        {
          "indexed": false,
          "internalType": "uint256",
          "name": "amount",
          "type": "uint256"
        }
      ],
      "name": "Transfer",
      "type": "event"
    },
    {
      "inputs": [],
      "name": "owner",
      "outputs": [
        {
          "internalType": "address",
          "name": "",
          "type": "address"
        }
      ],
      "stateMutability": "view",
      "type": "function",
      "constant": true
    },
    {
      "inputs": [],
      "name": "requiredDeposit",
      "outputs": [
        {
          "internalType": "uint256",
          "name": "",
          "type": "uint256"
        }
      ],
      "stateMutability": "view",
      "type": "function",
      "constant": true
    },
    {
      "stateMutability": "payable",
      "type": "receive",
      "payable": true
    },
    {
      "inputs": [
        {
          "internalType": "uint256",
          "name": "amount",
          "type": "uint256"
        }
      ],
      "name": "deposit",
      "outputs": [],
      "stateMutability": "payable",
      "type": "function",
      "payable": true
    },
    {
      "inputs": [
        {
          "internalType": "address payable",
          "name": "to",
          "type": "address"
        },
        {
          "internalType": "uint256",
          "name": "amount",
          "type": "uint256"
        }
      ],
      "name": "transferEther",
      "outputs": [],
      "stateMutability": "nonpayable",
      "type": "function"
    },
    {
      "inputs": [
        {
          "internalType": "address",
          "name": "newOwner",
          "type": "address"
        }
      ],
      "name": "updateOwner",
      "outputs": [],
      "stateMutability": "nonpayable",
      "type": "function"
    },
    {
      "inputs": [],
      "name": "getBalance",
      "outputs": [
        {
          "internalType": "uint256",
          "name": "",
          "type": "uint256"
        }
      ],
      "stateMutability": "view",
      "type": "function",
      "constant": true
    }
  ],
  "bytecode": "0x608060405234801561001057600080fd5b50336000806101000a81548173ffffffffffffffffffffffffffffffffffffffff021916908373ffffffffffffffffffffffffffffffffffffffff160217905550610b8a806100606000396000f3fe6080604052600436106100595760003560e01c806305b1137b146100cc57806312065fe0146100f5578063880cdc31146101205780638da5cb5b14610149578063b6b55f2514610174578063fb7cfdd714610190576100c7565b366100c75734600160008282546100709190610a08565b925050819055503373ffffffffffffffffffffffffffffffffffffffff167fe1fffcc4923d04b559f4d29a8bfc6cda04eb5b0d3c460751c2402c5c5cc9109c346040516100bd91906109dc565b60405180910390a2005b600080fd5b3480156100d857600080fd5b506100f360048036038101906100ee919061075e565b6101bb565b005b34801561010157600080fd5b5061010a6103bc565b60405161011791906109dc565b60405180910390f35b34801561012c57600080fd5b5061014760048036038101906101429190610735565b6103c6565b005b34801561015557600080fd5b5061015e610581565b60405161016b9190610921565b60405180910390f35b61018e6004803603810190610189919061079a565b6105a5565b005b34801561019c57600080fd5b506101a56106ea565b6040516101b291906109dc565b60405180910390f35b60008054906101000a900473ffffffffffffffffffffffffffffffffffffffff1673ffffffffffffffffffffffffffffffffffffffff163373ffffffffffffffffffffffffffffffffffffffff1614610249576040517f08c379a00000000000000000000000000000000000000000000000000000000081526004016102409061095c565b60405180910390fd5b600073ffffffffffffffffffffffffffffffffffffffff168273ffffffffffffffffffffffffffffffffffffffff1614156102b9576040517f08c379a00000000000000000000000000000000000000000000000000000000081526004016102b09061097c565b60405180910390fd5b6000811180156102cb57506001548111155b61030a576040517f08c379a00000000000000000000000000000000000000000000000000000000081526004016103019061093c565b60405180910390fd5b8173ffffffffffffffffffffffffffffffffffffffff166108fc829081150290604051600060405180830381858888f19350505050158015610350573d6000803e3d6000fd5b5080600160008282546103639190610a5e565b925050819055508173ffffffffffffffffffffffffffffffffffffffff167f69ca02dd4edd7bf0a4abb9ed3b7af3f14778db5d61921c7dc7cd545266326de2826040516103b091906109dc565b60405180910390a25050565b6000600154905090565b60008054906101000a900473ffffffffffffffffffffffffffffffffffffffff1673ffffffffffffffffffffffffffffffffffffffff163373ffffffffffffffffffffffffffffffffffffffff1614610454576040517f08c379a000000000000000000000000000000000000000000000000000000000815260040161044b9061095c565b60405180910390fd5b600073ffffffffffffffffffffffffffffffffffffffff168173ffffffffffffffffffffffffffffffffffffffff1614156104c4576040517f08c379a00000000000000000000000000000000000000000000000000000000081526004016104bb9061099c565b60405180910390fd5b8073ffffffffffffffffffffffffffffffffffffffff1660008054906101000a900473ffffffffffffffffffffffffffffffffffffffff1673ffffffffffffffffffffffffffffffffffffffff167f8292fce18fa69edf4db7b94ea2e58241df0ae57f97e0a6c9b29067028bf92d7660405160405180910390a3806000806101000a81548173ffffffffffffffffffffffffffffffffffffffff021916908373ffffffffffffffffffffffffffffffffffffffff16021790555050565b60008054906101000a900473ffffffffffffffffffffffffffffffffffffffff1681565b60008054906101000a900473ffffffffffffffffffffffffffffffffffffffff1673ffffffffffffffffffffffffffffffffffffffff163373ffffffffffffffffffffffffffffffffffffffff1614610633576040517f08c379a000000000000000000000000000000000000000000000000000000000815260040161062a9061095c565b60405180910390fd5b80678ac7230489e8000081101561067f576040517f08c379a0000000000000000000000000000000000000000000000000000000008152600401610676906109bc565b60405180910390fd5b81600160008282546106919190610a08565b925050819055503373ffffffffffffffffffffffffffffffffffffffff167fe1fffcc4923d04b559f4d29a8bfc6cda04eb5b0d3c460751c2402c5c5cc9109c836040516106de91906109dc565b60405180910390a25050565b678ac7230489e8000081565b60008135905061070581610b0f565b92915050565b60008135905061071a81610b26565b92915050565b60008135905061072f81610b3d565b92915050565b60006020828403121561074757600080fd5b6000610755848285016106f6565b91505092915050565b6000806040838503121561077157600080fd5b600061077f8582860161070b565b925050602061079085828601610720565b9150509250929050565b6000602082840312156107ac57600080fd5b60006107ba84828501610720565b91505092915050565b6107cc81610a92565b82525050565b60006107df600e836109f7565b91507f496e76616c696420616d6f756e740000000000000000000000000000000000006000830152602082019050919050565b600061081f600d836109f7565b91507f4e6f7420746865206f776e6572000000000000000000000000000000000000006000830152602082019050919050565b600061085f6019836109f7565b91507f496e76616c696420726563697069656e742061646472657373000000000000006000830152602082019050919050565b600061089f6019836109f7565b91507f496e76616c6964206e6577206f776e65722061646472657373000000000000006000830152602082019050919050565b60006108df6014836109f7565b91507f496e73756666696369656e74206465706f7369740000000000000000000000006000830152602082019050919050565b61091b81610ad6565b82525050565b600060208201905061093660008301846107c3565b92915050565b60006020820190508181036000830152610955816107d2565b9050919050565b6000602082019050818103600083015261097581610812565b9050919050565b6000602082019050818103600083015261099581610852565b9050919050565b600060208201905081810360008301526109b581610892565b9050919050565b600060208201905081810360008301526109d5816108d2565b9050919050565b60006020820190506109f16000830184610912565b92915050565b600082825260208201905092915050565b6000610a1382610ad6565b9150610a1e83610ad6565b9250827fffffffffffffffffffffffffffffffffffffffffffffffffffffffffffffffff03821115610a5357610a52610ae0565b5b828201905092915050565b6000610a6982610ad6565b9150610a7483610ad6565b925082821015610a8757610a86610ae0565b5b828203905092915050565b6000610a9d82610ab6565b9050919050565b6000610aaf82610ab6565b9050919050565b600073ffffffffffffffffffffffffffffffffffffffff82169050919050565b6000819050919050565b7f4e487b7100000000000000000000000000000000000000000000000000000000600052601160045260246000fd5b610b1881610a92565b8114610b2357600080fd5b50565b610b2f81610aa4565b8114610b3a57600080fd5b50565b610b4681610ad6565b8114610b5157600080fd5b5056fea2646970667358221220d1d83c638de021852a37d830b06bc5900ce490b19beeddfd11425cb0ab7b3e6a64736f6c63430008000033",
  "immutableReferences": {},
  "source": "// SPDX-License-Identifier: MIT\npragma solidity 0.8.0;\n\ncontract SimpleWallet {\n    address public owner;\n    uint256 public constant requiredDeposit = 10 ether;\n    uint256 private balance;\n\n    event Deposit(address indexed from, uint256 amount);\n    event Transfer(address indexed to, uint256 amount);\n    event OwnerUpdated(address indexed oldOwner, address indexed newOwner);\n\n    constructor() {\n        owner = msg.sender;\n    }\n\n    modifier onlyOwner() {\n        require(msg.sender == owner, \"Not the owner\");\n        _;\n    }\n\n    modifier hasRequiredDeposit(uint256 amount) {\n        require(amount >= requiredDeposit, \"Insufficient deposit\");\n        _;\n    }\n\n    // Deposit function to allow the owner to add funds to the contract\n    function deposit(uint256 amount) external payable onlyOwner hasRequiredDeposit(amount) {\n        // Increment the balance when funds are deposited\n        balance += amount;\n        emit Deposit(msg.sender, amount);\n    }\n\n    // Allows the owner to transfer Ether from the contract\n    function transferEther(address payable to, uint256 amount) external onlyOwner {\n        require(to != address(0), \"Invalid recipient address\");\n        require(amount > 0 && amount <= balance, \"Invalid amount\");\n\n        to.transfer(amount);\n        // Decrement the balance when funds are transferred\n        balance -= amount;\n        emit Transfer(to, amount);\n    }\n\n    // Allows the owner to update the contract owner\n    function updateOwner(address newOwner) external onlyOwner {\n        require(newOwner != address(0), \"Invalid new owner address\");\n        emit OwnerUpdated(owner, newOwner);\n        owner = newOwner;\n    }\n\n    // Allows anyone to view the current balance of the contract\n    function getBalance() external view returns (uint256) {\n        return balance;\n    }\n\n    // Fallback function to receive Ether\n    receive() external payable {\n        // Increment the balance when funds are received through the fallback function\n        balance += msg.value;\n        emit Deposit(msg.sender, msg.value);\n    }\n}\n",
  "sourcePath": "/home/ong/Documents/OfficeWork/Internship/Blockchain/simpleCryotpWallet/contracts/SimpleWallet.sol",
  "compiler": {
    "name": "solc",
    "version": "0.8.0+commit.c7dfd78e.Emscripten.clang"
  },
  "schemaVersion": "3.4.16",
  "updatedAt": "2024-01-09T09:21:36.218Z",
  "networkType": "ethereum",
  "devdoc": {
    "kind": "dev",
    "methods": {},
    "version": 1
  },
  "userdoc": {
    "kind": "user",
    "methods": {},
    "version": 1
  }
}